:100000000C946D010C949E010C949E010C949E0125
:100010000C949E010C949E010C949E010C949E01E4
:100020000C949E010C94360F0C949E010C949E012E
:100030000C949E010C949E010C949E010C949E01C4
:100040000C949E010C94080F0C949E010C949E013C
:100050000C949E010C949E010C949E010C94540CE3
:100060000C949E010C94280D0C94FE0C0C949E0193
:100070000C949E010C949E010C949E010C949E0184
:100080000C94DA0E0C949E010C949E010C949E012B
:100090000C949E010C949E010C949E010C945E0D98
:1000A0000C949E010C949E010C94AC0E0C949E0139
:1000B0000C949E010C949E010C949E010C947E0E57
:1000C0000C949E010C949E010C949E010C94C80CFF
:1000D0000C949E0C0C949E010C949E010C949E0119
:1000E0000C949E01036EDB363D9A9999993DABAA1B
:1000F000AA2A3E000000803F084AD73B3BCE016E53
:1001000084BCBFFDC12F3D6C74319ABD56833DDA6E
:100110003D00C77F11BED9E4BB4C3E916BAAAABE7D
:10012000000000803F072C7AA5BA6CC590DA3B939B
:1001300065FC8BBC53F810FD3C5692834DBD879DEA
:100140003AB63DCBC9BF5BBE73DA0FC93F000C9412
:1001500035020C9431020C94AA020C9412020C94F5
:100160003F020C940E020C94C2050C9423020C94D2
:100170001A020C9499030C94D7020C9493050C94D6
:1001800016020C943B020C9427020C944D020C9422
:100190005F050C94E6020C943C050C944C050C9401
:1001A0002D020C94930F0C9466050C9408030C9488
:1001B0003D050C9461090C944A030C9449020C947B
:1001C00043020C94FC010C94F7010C941D020C9456
:1001D000FA0200002100240027002A002D00300030
:1001E000330001010000040107010A0100002200A0
:1001F000250028002B002E003100340002010000F1
:10020000050108010B010505050507050808080893
:10021000020202020A0A080804040404010101019E
:100220000101010103030303030303030407070799
:100230000C0C0C0C0C0C0C0C02020202060606063E
:10024000060606060B0B0B0B0B0B0B0B010210200B
:1002500020080810204010204080020102010804FC
:100260000201010204081020408080402010080490
:1002700002018004020180402010080402010804E9
:10028000020101020408102040800102040810202D
:10029000408000000A0B02090C0D0E080703040140
:1002A000000000000000000000000000000000004E
:1002B000000000000000000000000000000012111B
:1002C000100000000000000000000000000000001E
:1002D0000000000000000000930F11241FBECFEFAC
:1002E000D1E2DEBFCDBF00E00CBF12E0A0E0B2E083
:1002F000E8E2F4E400E00BBF02C007900D92AA36DA
:10030000B107D9F726E0AAE6B2E001C01D92A33CEE
:10031000B207E1F711E0CDE6D1E000E006C0219799
:100320000109802FFE010E94641ECC36D10780E0B7
:100330000807A9F70E9408110C9412220C940000DF
:10034000FC01A089B18982E08C93A485B5851C92BB
:10035000A685B78580E18C93108EA489B58986E047
:100360008C93A289B3898C9180618C93A289B38983
:100370008C9188608C93A289B3898C9180688C93CE
:100380000288F389E02D80818F7D80830895282F56
:1003900030E0F901EE56FD4F9491F901E45BFD4F19
:1003A00044912A5F3D4FF9012491222309F435C07D
:1003B000992311F191509231F8F4E92FF0E0882758
:1003C000EB51FE4F8F4F0C94641E16021A02F70178
:1003D0000E021202FC011D02230227022D0231022D
:1003E00035023B023F02FC01430249024D0280916B
:1003F00080008F7780938000E22FF0E0EE0FFF1FE8
:10040000E451FE4FA591B4918FB7F894EC9161112E
:1004100048C040954E234C938FBF08958091800033
:100420008F7DE8CF80918000877FE4CF84B58F7780
:1004300084BDE2CF84B58F7DFBCF8091B0008F77F4
:100440008093B000D9CF8091B0008F7DF9CF80919B
:1004500090008F7780939000CFCF809190008F7D18
:10046000F9CF80919000877FF5CF8091A0008F77A2
:100470008093A000C1CF8091A0008F7DF9CF8091A3
:10048000A000877FF5CF809120018F778093200196
:10049000B3CF809120018F7DF9CF80912001877F9C
:1004A000F5CF4E2BB8CF3FB7F8948091430390918E
:1004B0004403A0914503B091460326B5A89B05C00F
:1004C0002F3F19F00196A11DB11D3FBFBA2FA92FD3
:1004D000982F8827BC01CD01620F711D811D911DD0
:1004E00042E0660F771F881F991F4A95D1F708953C
:1004F0008F929F92AF92BF92CF92DF92EF92FF9234
:100500004B015C010E9453026B017C010E9453026B
:100510006C197D098E099F09683E7340810591051C
:10052000A8F321E0821A9108A108B10888EEC80E4C
:1005300083E0D81EE11CF11C81149104A104B104D4
:1005400029F7FF90EF90DF90CF90BF90AF909F90F2
:100550008F900895AF92BF92CF92DF92EF92FF9269
:100560000F931F93CF93DF936C017B018B01040FDB
:10057000151FEB015E01AE18BF08C017D10759F077
:100580006991D601ED91FC910190F081E02DC601B9
:100590001995892B79F7C501DF91CF911F910F91A3
:1005A000FF90EF90DF90CF90BF90AF900895FC0147
:1005B000538D448D252F30E0842F90E0821B930BC8
:1005C000541710F0CF96089501970895FC01918D6E
:1005D000828D981761F0A28DAE0FBF2FB11D5D9671
:1005E0008C91928D9F5F9F73928F90E008958FEF13
:1005F0009FEF0895FC01918D828D981731F0828DC7
:10060000E80FF11D858D90E008958FEF9FEF08951D
:10061000FC01918D228D892F90E0805C9F4F821B81
:1006200091098F739927089587E993E00E94080341
:1006300021E0892B09F420E0822F089584E394E0DF
:100640000E94080321E0892B09F420E0822F0895FD
:10065000FC01A48DA80FB92FB11DA35ABF4F2C9137
:10066000848D90E001968F739927848FA689B7892E
:100670002C93A089B1898C91837080648C93938D25
:10068000848D981306C00288F389E02D80818F7DC8
:1006900080830895EF92FF920F931F93CF93DF9380
:1006A000EC0181E0888F9B8D8C8D98131AC0E889AE
:1006B000F989808185FF15C09FB7F894EE89FF897D
:1006C0006083E889F98980818370806480839FBF1B
:1006D00081E090E0DF91CF911F910F91FF90EF901B
:1006E0000895F62E0B8D10E00F5F1F4F0F7311272B
:1006F000E02E8C8D8E110CC00FB607FCFACFE88966
:10070000F989808185FFF5CFCE010E942803F1CFC2
:10071000EB8DEC0FFD2FF11DE35AFF4FF0829FB7D9
:10072000F8940B8FEA89FB8980818062CFCF0C948B
:100730004A03CF93DF93EC01888D8823B9F0AA890F
:10074000BB89E889F9898C9185FD03C0808186FD8C
:100750000DC00FB607FCF7CF8C9185FFF2CF8081DB
:1007600085FFEDCFCE010E942803E9CFDF91CF9125
:10077000089580E090E0892B29F00E941E038111EA
:100780000E94000080E090E0892B49F080E090E03A
:10079000892B29F00E94000081110E94000080E056
:1007A00090E0892B29F00E94140381110E9400001F
:1007B00080E090E0892B49F080E090E0892B29F0DF
:1007C0000E94000081110C94000008951F93CF93A4
:1007D000DF93C1E0C0939002882399F1D091B800D3
:1007E0001091BA008091BC008A7B8093BC0060E0CD
:1007F00084E10E94C70160E085E10E94C701109278
:100800006D03C0936C031092470361E084E10E9482
:10081000C70161E085E10E94C7018091B9008E7F28
:100820008093B9008091B9008D7F8093B90088E4EE
:100830008093B80085E48093BC001093BA00D093F5
:10084000B800DF91CF911F9108958F929F92AF9240
:10085000BF92CF92DF92EF92FF920F931F93CF93AD
:10086000DF93D0919603D13208F0D7C0182FC091F2
:1008700095030E9453026B017C0180916D038111ED
:100880006BC082E080936D0310936C038FEF8093B5
:100890006B0310926A03D0936903A5E7B3E0E9E420
:1008A000F3E080E0D81391C0109248038091480390
:1008B000CC0FC82BC093480380914703813009F0C7
:1008C00088C0109247030E9453026B017C01809103
:1008D00048038093BB0080916F0390917003A091B7
:1008E0007103B0917203892B8A2B8B2BA1F00E948C
:1008F000530200916F0310917003209171033091A6
:1009000072036C197D098E099F09061717072807BE
:10091000390708F442C08091BC0083FDD8CF85EC34
:100920008093BC000E9453026B017C0180916D0397
:10093000823009F450C080916B038F3F09F46FC07F
:1009400080916B03803209F46CC080916B0380331B
:1009500009F469C084E026C080916F039091700310
:10096000A0917103B0917203892B8A2B8B2B09F410
:1009700084CF0E94530280906F0390907003A090E8
:100980007103B09072036C197D098E099F09861658
:100990009706A806B90608F070CF80916E030E94F2
:1009A000E60385E01092740310929603109273038D
:1009B000DF91CF911F910F91FF90EF90DF90CF903B
:1009C000BF90AF909F908F9008959D9191938F5F6E
:1009D00069CF85EEA5CF80916F0390917003A091B0
:1009E0007103B0917203892B8A2B8B2B09F49ECF54
:1009F0000E94530200916F031091700320917103C4
:100A0000309172036C197D098E099F09061717072B
:100A10002807390708F08ACFC0CF81E0C3CF80E034
:100A2000C1CF82E0BFCF83E0BDCF2091B102260FBE
:100A30003327331F21323105ECF420916D03FC0183
:100A400090E080E0243069F082E00895A091B10246
:100A50002191AC014F565D4FA40FB52FB11D2C93C2
:100A60000196861798F38091B102680F6093B102E6
:100A700080E0089581E008950895E0918F028091CB
:100A80008E02E81730F4F0E0E259FD4F808190E0EB
:100A900008958FEF9FEF089590918F0280918E02BD
:100AA0002FEF3FEF981748F4E92FF0E0E259FD4FA0
:100AB000208130E09F5F90938F02C901089580915B
:100AC0008E0290918F02891B990B0895CF92DF922D
:100AD000EF92FF920F931F93CF93DF937C01CB0193
:100AE0008A0120917303222389F0EB016B01C40E6C
:100AF000D51ECC15DD0569F06991D701ED91FC910A
:100B00000190F081E02DC7011995F3CF642F0E9469
:100B10001505C801DF91CF911F910F91FF90EF90C4
:100B2000DF90CF900895CF93DF931F92CDB7DEB7BC
:100B30006983209173032223F9F0209196032032D8
:100B400058F021E030E0FC013383228390E080E024
:100B50000F90DF91CF91089580917403E82FF0E01A
:100B6000EB58FC4F998190838F5F8093740380933F
:100B7000960381E090E0ECCF61E0CE0101960E9407
:100B80001505F7CF90E080E00895DC01EC91E033AB
:100B900090F511968C91119728E830E0281B3109C7
:100BA00087FD3395220F331F220F331F6217730700
:100BB00084F012968C9128E532E0281B310987FDDC
:100BC0003395220F331F220F331F621773070CF464
:100BD0009B0122503109220F331F4FB7F8948E2FFB
:100BE00090E0FC01EE0FFF1FE80FF91FE352FB4FEF
:100BF000328321834FBF0895AF92BF92CF92DF928D
:100C0000EF92FF920F931F93CF93DF936B017A01C3
:100C1000EC01C659DD4F28813CE0389F8001399FA7
:100C2000100D1124A0906D05B12C27FF1FC0FB01F2
:100C30001182108288818F5F888388819801280FB4
:100C4000311D87FD3A95F6012A153B051CF4888174
:100C50008C30C4F180819181049680349C4908F4E1
:100C600073C0F60180819181049670C088819801DB
:100C7000280F311D87FD3A952A153B05DCF6888142
:100C8000A801480F511D87FD5A95FA01EE0FFF1F6D
:100C9000E40FF51FE352FB4F808186FFCBCF8881A5
:100CA000F801E80FF11D87FDFA95CF01EE0FFF1F48
:100CB000E80FF91FE352FB4F808160E08F730E94C1
:100CC000C701B8CF808191812881A801420F511DB1
:100CD00027FD5A959A01FA01EE0FFF1FE20FF31F4D
:100CE000E352FB4F21813281820F931FF7019183E1
:100CF000808388819801280F311D87FD3A95F9017D
:100D0000EE0FFF1FE20FF31FE352FB4F808186FFC0
:100D100022C08881080F111D87FD1A95F801EE0F7A
:100D2000FF1FE00FF11FE352FB4F808161E08F73E3
:100D3000DF91CF911F910F91FF90EF90DF90CF90B7
:100D4000BF90AF900C94C70180E49CE9F7019183B8
:100D500080838FEF8883DF91CF911F910F91FF9058
:100D6000EF90DF90CF90BF90AF9008954F925F9239
:100D70006F927F928F929F92AF92BF92CF92DF92AB
:100D8000EF92FF92CF93DF935C01FC01D0E0C0E0D3
:100D900081914E019FEF891A990A882311F08E32B2
:100DA000E9F5CA0DDB1D412C512C90E8692E9FE31B
:100DB000792EC12CD12C7601CA15DB0589F5C80D19
:100DC000D91D8DEC882E8CEC982EA92C8DE3B82E95
:100DD0006991662309F447C0062E000C770B605317
:100DE0007109072E000C880B990B0E942920A50180
:100DF00094010E9441219B01AC01C701B6010E94F0
:100E0000811E6B017C012DEC3CEC4CEC5DE3C501DB
:100E1000B4010E9441214B015C01DACFE401B8CF5B
:100E20006A91062E000C770B60537109072E000C97
:100E3000880B990B0E942920A30192010E94412155
:100E40009B01AC01C701B6010E94811E6B017C01B0
:100E500020E030E040E251E4C301B2010E944121B0
:100E60002B013C01A9CFC701B601DF91CF91FF90C3
:100E7000EF90DF90CF90BF90AF909F908F907F903A
:100E80006F905F904F900895FC0120812D3229F4DE
:100E900001960E94B606905808950C94B60668EE26
:100EA00073E087EB96E00E94C50568EE73E08AEB7D
:100EB00096E00E94C50568EE73E08DEB96E00E9417
:100EC000C50568EE73E080EC96E00C94C505CF9301
:100ED00081ED94E00E944C05C82F81ED94E00E94C2
:100EE0004C0520E0822B9C2BCF910895CF93C62FE9
:100EF00091E09093730398E6909395031092740396
:100F000010929603682F81ED94E00E9493056C2F58
:100F100081ED94E00E94930581E0CF910C9425042B
:100F2000FB0101900020E9F73197AF01461B570BF9
:100F30000C94AA028F929F92AF92BF92EF92FF926F
:100F40000F931F93CF93DF93CDB7DEB7A1970FB663
:100F5000F894DEBF0FBECDBF7C01FA01CB0119A210
:100F6000223008F42AE08E010F5D1F4F822E912C53
:100F7000B12CA12CBF01A50194010E94221EF901F0
:100F8000CA016A300CF5605DD8016E938D01232B88
:100F9000242B252B79F790E080E0109721F0BD01FC
:100FA000C7010E949007A1960FB6F894DEBF0FBE4E
:100FB000CDBFDF91CF911F910F91FF90EF90BF9028
:100FC000AF909F908F900895695CDECF4F925F92B3
:100FD0006F927F928F929F92AF92BF92CF92DF9249
:100FE000EF92FF92CF93DF9300D000D0CDB7DEB762
:100FF0009E838D83DC014D905D906D907C90139766
:1010000014968D909D90AD90BC90179718968D91E9
:101010009D910D90BC91A02D89839A83AB83BC8355
:10102000A3019201C301B2010E9441216B017C0125
:10103000A5019401C501B4010E9441219B01AC01AD
:10104000C701B6010E94811E6B017C0129813A8192
:101050004B815C81CA01B9010E9441219B01AC0115
:10106000C701B6010E94811E0E94B4219B01AC0100
:1010700060E070E080E89FE30E947F1F6B017C01CD
:10108000A30192010E944121ED81FE816083718361
:1010900082839383A5019401C701B6010E94412177
:1010A000AD81BE8114966D937D938D939C9317971C
:1010B00029813A814B815C81C701B6010E9441219F
:1010C000ED81FE81608771878287938726960FB6B0
:1010D000F894DEBF0FBECDBFDF91CF91FF90EF90B0
:1010E000DF90CF90BF90AF909F908F907F906F9048
:1010F0005F904F9008952F923F924F925F926F9220
:101100007F928F929F92AF92BF92CF92DF92EF9297
:10111000FF921F93CF93DF93EC016A017B01722E44
:10112000AB019601CB01B6010E94F8216DE272E09D
:10113000811126C046015701E894B7F82FEF3FEF21
:101140004FE75FE7C501B4010E94F82181110CC08F
:101150002FEF3FEF4FE75FE7C501B4010E947A1F11
:1011600061E372E0181664F02FEF3FEF4FE75FE4A2
:10117000C701B6010E9434211816B4F465E372E089
:10118000CE01DF91CF911F91FF90EF90DF90CF9034
:10119000BF90AF909F908F907F906F905F904F9097
:1011A0003F902F900C9490072FEF3FEF4FE75FECAD
:1011B000C701B6010E947A1F87FDE0CF20E030E032
:1011C000A901C701B6010E947A1F312C212C87FF8B
:1011D00009C06DE2CE010E944A031C01F7FAF094A7
:1011E000F7F8F09410E060E070E080E09FE37116A3
:1011F00041F020E030E040E251E40E947F1F1F5F99
:10120000F6CFA70196010E94811E2B013C010E948E
:10121000F81F4B015C012AE0BC01A401CE010E9431
:101220009A077C01E20CF31C1123C1F1C501B40142
:101230000E9427209B01AC01C301B2010E94801EC5
:101240004B015C016EE2CE010E944A03E80EF91EDA
:10125000115020F120E030E040E251E4C501B4013A
:101260000E9441212B013C010E94F81F4B01B12C2F
:10127000A12C2AE0B501A401CE010E949A07E80E34
:10128000F91EC501B4010E9427209B01AC01C301D6
:10129000B2010E94801E4B015C01DACFC701DF91D1
:1012A000CF911F91FF90EF90DF90CF90BF90AF90C4
:1012B0009F908F907F906F905F904F903F902F9076
:1012C00008958F929F92AF92BF92CF92DF92EF924A
:1012D000FF920F931F93CF93DF93C82F8B014A0187
:1012E00069E372E084E394E00E949007EC2E0C2EF8
:1012F000000CFF08B70184E394E00E94970363E4C5
:1013000072E084E394E00E9490075801D12CC12C34
:10131000C814D904ACF4F5014191519161917191D6
:101320005F0122E084E394E00E947B086CE472E0B9
:1013300084E394E00E949007FFEFCF1ADF0AE8CF22
:101340006DE584E394E00E944A036FE472E084E375
:1013500094E00E949007C6340CF0BDC0C23409F47A
:101360008DC07CF4C134C1F1DF91CF911F910F91F9
:10137000FF90EF90DF90CF90BF90AF909F908F90B5
:101380000895C33409F491C0C43471F763E570E083
:1013900087E993E00E949703C6E2D3E002E313E0FB
:1013A000499159916991799122E087E993E00E94EE
:1013B0007B080C171D07A1F7C0EED2E049915991A7
:1013C0006991799122E087E993E00E947B08E2E04D
:1013D000C03FDE0799F740C060E570E087E993E021
:1013E0000E949703CEE6D5E010E000E048815981E5
:1013F0006A817B8122E087E993E00E947B0862E5B5
:1014000072E087E993E00E9490074C815D816E81D4
:101410007F8122E087E993E00E947B0862E572E029
:1014200087E993E00E949007488559856A857B8506
:1014300022E087E993E00E947B080230110531F039
:1014400062E572E087E993E00E9490070F5F1F4F0B
:1014500068960330110551F663E270E087E993E086
:10146000DF91CF911F910F91FF90EF90DF90CF9080
:10147000BF90AF909F908F900C94970361E570E0C0
:1014800087E993E00E949703C6E2D3E002E313E00A
:10149000499159916991799122E087E993E00E94FD
:1014A0007B080C171D07A1F7D7CF62E570E087E92D
:1014B00093E00E949703C0EED2E04991599169915F
:1014C000799122E087E993E00E947B0882E0C03FA7
:1014D000D80799F7C1CFC0350CF046C0C701865474
:1014E000910963E070E00E94501E81309105C1F0C7
:1014F0008230910539F1892B09F036CFF8018081CE
:101500009181A281B38128E1269FF001279FF00DF0
:101510001124E259FA4F80839183A283B38324CFAD
:10152000F80180819181A281B38128E1269FF00199
:10153000279FF00D1124E259FA4F84839583A683E7
:10154000B78312CFF80180819181A281B38128E114
:10155000269FF001279FF00D1124E259FA4F808752
:101560009187A287B38700CFCA3509F0FDCE64E525
:1015700072E084E394E00E9490076FE472E084E3F9
:1015800094E00E9490076FE572E084E394E00E948B
:1015900090076FE472E084E394E0DF91CF911F91B4
:1015A0000F91FF90EF90DF90CF90BF90AF909F9002
:1015B0008F900C949007CF92DF92EF92FF920F934F
:1015C0001F9391E09093730398E690939503109284
:1015D000740310929603682F81ED94E00E949305A6
:1015E00081E00E9425040E9453026B017C018091DE
:1015F0006D03811164C081E080936D0380936C035F
:101600009FEF90936B0310926A038093690380931A
:10161000480380914803806D80934803809147037D
:10162000813009F07DC0109247030E9453026B0184
:101630007C01809148038093BB0080916F0390915F
:101640007003A0917103B0917203892B8A2B8B2BAD
:10165000A1F00E94530200916F031091700320913A
:101660007103309172036C197D098E099F09061769
:1016700017072807390708F443C08091BC0083FD91
:10168000D8CF85EC8093BC000E9453026B017C0193
:1016900080916D03813009F445C080916A038230E6
:1016A00008F062C080916A03A9E4B3E0EEE6F2E0DC
:1016B00090E0981751F12D9121939F5FFACF80917F
:1016C0006F0390917003A0917103B0917203892B05
:1016D0008A2B8B2B09F48BCF0E94530200916F034E
:1016E0001091700320917103309172036C197D0980
:1016F0008E099F09061717072807390708F077CFC3
:1017000080916E030E94E60380E010928F02809326
:101710008E021F910F91FF90EF90DF90CF90089570
:1017200085EEB0CF80916F0390917003A09171030B
:10173000B0917203892B8A2B8B2B09F4A9CF0E94BD
:10174000530200916F031091700320917103309147
:1017500072036C197D098E099F0906171707280760
:10176000390708F095CFCCCF82E09ECF85ED8093EE
:10177000BC0080916F0390917003A0917103B091B0
:1017800072030796A11DB11D23E0B695A795979505
:1017900087952A95D1F72091BC0024FD03C01092B3
:1017A0006D03089540916F03509170036091710330
:1017B00070917203452B462B472B69F30097A105C7
:1017C000B10541F025E32A95F1F700000197A10941
:1017D000B109E1CF80916E030C94E603CF92DF92C2
:1017E000EF92FF920F931F93CF93DF9300D01F923E
:1017F000CDB7DEB719821A821B821C827E0125E0DA
:10180000E20EF11C8E010F5F1F4F6C01C01AD10A4E
:10181000C601800F911F0E940C1EF80181938F0159
:10182000EE15FF05A9F769817A818B819C810F9064
:101830000F900F900F90DF91CF911F910F91FF901C
:10184000EF90DF90CF900895CF92DF92EF92FF92CA
:101850000F931F93CF93DF9300D01F92CDB7DEB7C6
:101860006C0149835A836B837C83CE0101967C0192
:1018700010E000E0F70161917F01C601800F911F28
:101880000E94141E0F5F1F4F0430110599F70F902F
:101890000F900F900F90DF91CF911F910F91FF90BC
:1018A000EF90DF90CF9008951F920F920FB60F9296
:1018B00011242F933F938F939F93AF93BF93809166
:1018C0003F0390914003A0914103B09142033091B6
:1018D0003E0323E0230F2D3758F50196A11DB11DBE
:1018E00020933E0380933F0390934003A0934103D2
:1018F000B09342038091430390914403A091450328
:10190000B09146030196A11DB11D809343039093AE
:101910004403A0934503B0934603BF91AF919F91B9
:101920008F913F912F910F900FBE0F901F901895A0
:1019300026E8230F0296A11DB11DD2CF1F920F9250
:101940000FB60F9211240BB60F922F933F934F9324
:101950005F936F937F938F939F93AF93BF93EF9317
:10196000FF9387E993E00E942803FF91EF91BF91D5
:10197000AF919F918F917F916F915F914F913F9127
:101980002F910F900BBE0F900FBE0F901F901895C8
:101990001F920F920FB60F9211240BB60F922F9336
:1019A0008F939F93EF93FF93E091A703F091A80388
:1019B0008081E091AD03F091AE0382FD1DC0908166
:1019C0008091B0038F5F8F732091B103821741F034
:1019D000E091B003F0E0E956FC4F958F8093B0039F
:1019E000FF91EF919F918F912F910F900BBE0F90D0
:1019F0000FBE0F901F9018958081F2CF1F920F920B
:101A00000FB60F9211240BB60F922F933F934F9363
:101A10005F936F937F938F939F93AF93BF93EF9356
:101A2000FF9384E394E00E942803FF91EF91BF911C
:101A3000AF919F918F917F916F915F914F913F9166
:101A40002F910F900BBE0F900FBE0F901F90189507
:101A50001F920F920FB60F9211240BB60F922F9375
:101A60008F939F93EF93FF93E0914404F09145048B
:101A70008081E0914A04F0914B0482FD1DC0908169
:101A800080914D048F5F8F7320914E04821741F037
:101A9000E0914D04F0E0EC5CFB4F958F80934D049A
:101AA000FF91EF919F918F912F910F900BBE0F900F
:101AB0000FBE0F901F9018958081F2CF1F920F924A
:101AC0000FB60F9211240BB60F922F933F934F93A3
:101AD0005F936F937F938F939F93AF93BF93EF9396
:101AE000FF938091B900887F803609F44DC008F0DB
:101AF00040C0883209F4A7C028F5803109F49BC0A2
:101B0000C8F4882309F4F7C0883009F494C0FF9121
:101B1000EF91BF91AF919F918F917F916F915F9165
:101B20004F913F912F910F900BBE0F900FBE0F90D2
:101B30001F901895883109F486C0803241F7809350
:101B40006B0314C0803409F49BC040F48033B9F3B4
:101B50008833E9F680936B0385ECAEC0803509F4D9
:101B600083C0883509F494C0883489F60E94B60B86
:101B7000CECF883909F48AC038F5883729F050F477
:101B8000883611F0803719F683E080936D03109248
:101B9000D30255C0883809F479C0803919F08038EB
:101BA00009F0B5CF8091D302803208F06FC0E09188
:101BB000D30281E08E0F8093D3028091BB00F0E0CE
:101BC000ED54FD4F80833BC0803B39F0D0F4803A28
:101BD00009F477C0883A09F09ACF84E080936D03C6
:101BE0001092B2021092B102F0E0E0E019958091FB
:101BF000B10281110FC081E08093B1021092910275
:101C000009C0803C09F4A8CF883C09F4A5CF883BE3
:101C100009F07DCFE091B20281E08E0F8093B20295
:101C2000F0E0EF56FD4F80818093BB009091B202AF
:101C30008091B10229C0809148038093BB0085EC5C
:101C40008093BC0064CF90916A03809169039817D8
:101C500058F5E0916A0381E08E0F80936A03F0E00B
:101C6000E75BFC4F8081E9CFE0916A0381E08E0F52
:101C700080936A038091BB00F0E0E75BFC4F8083B8
:101C800090916A03809169039817C8F285E8D8CFCC
:101C9000E0916A0381E08E0F80936A038091BB001C
:101CA000F0E0E75BFC4F808380916C0381115ECF95
:101CB00081E08093470384EA8093BC0010926D0317
:101CC00026CF85EC8093BC0010926D038091D302E7
:101CD000803230F4E091D302F0E0ED54FD4F1082F9
:101CE0006091D30270E083EB92E0F0E0E0E01995C0
:101CF0001092D3020CCF10926B0338CF1F920F9229
:101D00000FB60F9211240BB60F922F933F934F9360
:101D10005F936F937F938F939F93AF93BF93EF9353
:101D2000FF9348E251E064E271E090E080E00E94BD
:101D3000FC05FF91EF91BF91AF919F918F917F91A2
:101D40006F915F914F913F912F910F900BBE0F902C
:101D50000FBE0F901F9018951F920F920FB60F9203
:101D600011240BB60F922F933F934F935F936F9372
:101D70007F938F939F93AF93BF93EF93FF9348EA23
:101D800050E064EA70E083E090E00E94FC05FF917F
:101D9000EF91BF91AF919F918F917F916F915F91E3
:101DA0004F913F912F910F900BBE0F900FBE0F9050
:101DB0001F9018951F920F920FB60F9211240BB619
:101DC0000F922F933F934F935F936F937F938F93D4
:101DD0009F93AF93BF93EF93FF9348E950E064E97B
:101DE00070E082E090E00E94FC05FF91EF91BF91CE
:101DF000AF919F918F917F916F915F914F913F91A3
:101E00002F910F900BBE0F900FBE0F901F90189543
:101E10001F920F920FB60F9211240BB60F922F93B1
:101E20003F934F935F936F937F938F939F93AF9362
:101E3000BF93EF93FF9348E850E064E870E081E0DF
:101E400090E00E94FC05FF91EF91BF91AF919F91AF
:101E50008F917F916F915F914F913F912F910F9053
:101E60000BBE0F900FBE0F901F9018951F920F92F0
:101E70000FB60F9211240BB60F922F933F934F93EF
:101E80005F936F937F938F939F93AF93BF93CF9302
:101E9000DF93EF93FF930E945302AB017093F10223
:101EA0006093F002E0EFF2E090E080E071E023B1B7
:101EB000628130E0082E02C0359527950A94E2F73A
:101EC00020FF1FC0611103C07283548343830196B6
:101ED00033968830910559F7FF91EF91DF91CF91BB
:101EE000BF91AF919F918F917F916F915F914F9132
:101EF0003F912F910F900BBE0F900FBE0F901F9030
:101F00001895613021F71282DC01AA0FBB1FA05186
:101F1000BD4F23813481EA01C21BD30B5B96DC9356
:101F2000CE935A97D4CF10929A031092990388EEC9
:101F300093E0A0E0B0E080939B0390939C03A09378
:101F40009D03B0939E032DE032E0309398032093DD
:101F5000970345ED50E05093A4034093A30344ED51
:101F600050E05093A6034093A50340ED50E05093FA
:101F7000A8034093A70341ED50E05093AA03409378
:101F8000A90342ED50E05093AC034093AB0346ED00
:101F900050E05093AE034093AD031092B003109203
:101FA000B1031092B2031092B3031092370410924F
:101FB00036048093380490933904A0933A04B09384
:101FC0003B04309335042093340425EC30E0309307
:101FD00041042093400424EC30E0309343042093E8
:101FE000420420EC30E0309345042093440421EC7B
:101FF00030E0309347042093460422EC30E03093E5
:1020000049042093480426EC30E030934B0420939D
:102010004A0410924D0410924E0410924F041092F4
:1020200050041092D4041092D3048093D50490935A
:10203000D604A093D704B093D8048FE192E0909394
:10204000D2048093D104E7EBF6E02FEF48EB5BE09E
:1020500080916D05803308F0D9C091E0980F90937E
:102060006D05808390E0DC01AA0FBB1FA80FB91F8C
:10207000A352BB4F12965C934E931197339686E012
:10208000E33CF80729F78CE0EBE7F6E0DF01982F57
:102090001D929A95E9F71092870610928806109281
:1020A000890610928A06EBE8F6E0DF011D928A9518
:1020B000E9F780E090E0A0E8BFE380939706909373
:1020C0009806A0939906B0939A0610929B061092D8
:1020D0009C0610929D0610929E0610929F061092EA
:1020E000A0061092A1061092A2061092A3061092CA
:1020F000A4061092A5061092A6061092A7061092AA
:10210000A8061092A9061092AA06109237061092FD
:10211000360680E090E0A0E2B1E480936E059093F3
:102120006F05A0937005B09371051092720510921F
:102130007305109274051092750510927605109231
:102140007705109278051092790510927E0510920D
:102150007F051092800510928105109282051092E1
:1021600083051092840510928505809386059093CF
:102170008705A0938805B093890510928A0510926F
:102180008B0510928C0510928D0510928E05109281
:102190008F0510929005109291051092960510925D
:1021A0009705109298051092990510929A05109231
:1021B0009B0510929C0510929D0510929E05109211
:1021C0009F051092A0051092A1051092A2051092F1
:1021D000A3051092A4051092A5051092A6051092D1
:1021E000A7051092A8051092A9051092AE051092AD
:1021F000AF051092B0051092B1051092B205109281
:10220000B3051092B4051092B5050895208336CF1A
:10221000CF93DF93CDB7DEB7C059D1090FB6F8948D
:10222000DEBF0FBECDBF789484B5826084BD84B517
:10223000816084BD85B5826085BD85B5816085BDC1
:1022400080916E00816080936E0010928100809179
:102250008100826080938100809181008160809301
:102260008100809180008160809380008091B10026
:1022700084608093B1008091B00081608093B00051
:1022800080919100826080939100809191008160A3
:102290008093910080919000816080939000809164
:1022A000A10082608093A1008091A1008160809351
:1022B000A1008091A00081608093A0008091210105
:1022C00082608093210180912101816080932101AE
:1022D0008091200181608093200180917A00846048
:1022E00080937A0080917A00826080937A00809156
:1022F0007A00816080937A0080917A008068809370
:102300007A001092C10068EB7BE080E090E00E94D0
:10231000780284E394E00E94A001809168008160CB
:102320008093680090E080E061E070E020916B00B5
:10233000AB01082E01C0440F0A94EAF7242B209326
:102340006B0001968830910589F78FE30E94DB0AC4
:102350000E9467078C018DE30E94DB0A0E946707D9
:102360007C018BE30E94DB0A0E9467076C0180E01E
:1023700090E0A0E8BFE38093970690939806A0931F
:102380009906B0939A0610929B0610929C061092A2
:102390009D0610929E0610929F061092A006109223
:1023A000A1061092A2061092A3061092A406109203
:1023B000A5061092A6060E9453026093A70670938A
:1023C000A8068093A9069093AA06B601DD0C880B97
:1023D000990B0E94292020E030E040E858E30E9459
:1023E000412169837A838B839C83B701FF0C880B1F
:1023F000990B0E94292020E030E040E858E30E9439
:1024000041216D837E838F839887B801110F880BDC
:10241000990B0E94292020E030E040E858E30E9418
:10242000412169877A878B879C87CE0101960E941C
:10243000E60729813A814B815C8161962CAF3DAFE3
:102440004EAF5FAF6197CD80DE80EF80F884CA0128
:10245000B9010E9441214B015C01A7019601C7010E
:10246000B6010E9441219B01AC01C501B4010E944B
:10247000811E2B013C0189849A84AB84BC84A50114
:102480009401C501B4010E944121A30192010E945F
:10249000811E0E94B4219B01AC01C501B4010E94C0
:1024A0007F1F20E030E040E05FE30E9441214B01CC
:1024B0005C01AC019B0160E070E080E09FE30E9462
:1024C000801EA30192010E947F1F0E94B4212B0154
:1024D0003C0120E030E040E05FE3C501B4010E9430
:1024E000811E0E94B4216093970670939806809392
:1024F000990690939A06A3019201C701B6010E9422
:10250000412160939B0670939C0680939D06909357
:102510009E0661966CAD7DAD8EAD9FAD6197905876
:10252000A30192010E94412160939F067093A0062F
:102530008093A1069093A2061092A3061092A4067F
:102540001092A5061092A60660E08BE60E94760720
:1025500066E08AE10E94760760E08BE10E947607E0
:1025600060E08CE10E94760721E1E22E27E2F22E64
:1025700037E8A32E36E0B32E31E0E31AF108E9F193
:1025800083E40E94DB0A0E9467079A83898385E4BB
:102590000E94DB0A0E9467079C838B8387E40E946A
:1025A000DB0A0E9467079E838D830BE716E0AE016E
:1025B0004F5F5F4F6A01D8014D905D906D907D90A7
:1025C0008D01F601619171916F014D01F4E08F1A57
:1025D0009108072E000C880B990B0E942920A3015B
:1025E00092010E94811ED4016D937D938D939C93E3
:1025F0001397A016B106F9F6BFCF0BE716E097E8E0
:10260000E92E96E0F92EF8016191719181919191F5
:102610008F016F01F4E0CF1AD10827E137EB41EDCC
:1026200058E30E944121D6016D937D938D939C9335
:102630001397E016F10639F787E993E00E94A001AD
:1026400081E699E090937A06809379061092370696
:1026500010923606A7EBB6E030E020E00CE012E086
:102660008C91803308F076C0F901EE0FFF1FEF5F09
:10267000FD4F40815181CA019927FC01E45BFD4F68
:1026800064918A5F9D4FFC0184918823A1F090E0C2
:10269000880F991FFC01EE52FE4FE590F490FC016B
:1026A000E451FE4F859194918FB7F894F701908192
:1026B000692B60838FBF8C91682F70E0FB01EE0F58
:1026C000FF1FE60FF71FE352FB4F942F9F734081CC
:1026D000407C492B408311961C92119712961C92B4
:1026E0001297602F0E94441E809FB001112450E079
:1026F00040E07B01E40EF51EF701EE0FFF1FEE0D2B
:10270000FF1DE352FB4F908196FD17C04F5F5F4F57
:102710004C30510571F7813011F00C94721D1092FC
:102720008000109381001092850010928400B19A6D
:1027300080916F00826080936F00EC918E2F90E00B
:10274000FC01EE0FFF1FE80FF91FE352FB4F8081E2
:10275000806480832F5F3F4F13962430310509F04A
:102760007FCF0E944F0768EE73E080E090E00E9408
:10277000780280910C0390910D03803B94405CF5AE
:10278000FEE6EF2EF5E0FF2E10E000E0C8010E940B
:10279000EE0BD7016D937D938D939C931397C80196
:1027A00008960E94EE0BF7016087718782879387F6
:1027B000C80140960E94EE0BD70114966D937D934D
:1027C0008D939C931797085E1F4FB8E1EB0EF11C99
:1027D00008341105D9F660ED77E080E090E00E94C2
:1027E00078020E9453020E9427206B017C01C09254
:1027F0003A03D0923B03E0923C03F0923D032091D8
:1028000036033091370340913803509139030E94C9
:10281000801E20E034E244E759E40E947F1FE596E1
:102820006CAF7DAF8EAF9FAFE5976093320370932F
:1028300033038093340390933503C0923603D092D0
:102840003703E0923803F09239038FE30E94DB0AEA
:102850000E9467078C018BE30E94DB0A0E946707D6
:102860007C018DE30E94DB0A0E9467076C0187E40C
:102870000E94DB0A0E946707BC01990F880B990B25
:102880000E9429202091830630918406409185067C
:10289000509186060E94801E2DEF33EB4BE059E3EA
:1028A0000E944121CB57DF4F688379838A839B83C2
:1028B000C558D04083E40E94DB0A0E946707BC0130
:1028C000990F880B990B0E94292020917B0630914B
:1028D0007C0640917D0650917E060E94801E2DEF61
:1028E00033EB4BE059E30E944121C757DF4F688328
:1028F00079838A839B83C958D04085E40E94DB0A90
:102900000E946707BC01990F880B990B0E94292030
:1029100020917F0630918006409181065091820679
:102920000E94801E2DEF33EB4BE059E30E944121C2
:10293000C357DF4F688379838A839B83CD58D04008
:102940000E9453028090A7069090A806A090A90626
:10295000B090AA069B01AC01281939094A095B0904
:1029600049015A010E9453026093A7067093A8067A
:102970008093A9069093AA06C501B4010E9427205E
:102980002DEB37E346E855E30E944121A1966CAF59
:102990007DAF8EAF9FAFA197B601DD0C880B990B71
:1029A0000E94292020E030E040E858E30E944121C5
:1029B00069837A838B839C83B701FF0C880B990B07
:1029C0000E94292020E030E040E858E30E944121A5
:1029D0006D837E838F839887B801110F880B990BC5
:1029E0000E94292020E030E040E858E30E94412185
:1029F00069877A878B879C87CE0101960E94E607BC
:102A00008091970690919806A0919906B0919A06A8
:102A100061968CAF9DAFAEAFBFAF619720919F061F
:102A20003091A0064091A1065091A20669962CAF64
:102A30003DAF4EAF5FAF699780919B0690919C062A
:102A4000A0919D06B0919E066D968CAF9DAFAEAFE6
:102A5000BFAF6D972091A3063091A4064091A506C3
:102A60005091A60665962CAF3DAF4EAF5FAF659710
:102A7000BC01CD010E9441216B017C0169962CAD06
:102A80003DAD4EAD5FAD699761966CAD7DAD8EADE0
:102A90009FAD61970E9441219B01AC01C701B60126
:102AA0000E94801E9B01AC010E94811EE9966CAFC2
:102AB0007DAF8EAF9FAFE9976D962CAD3DAD4EAD1E
:102AC0005FAD6D9761966CAD7DAD8EAD9FAD61973D
:102AD0000E9441216B017C0165962CAD3DAD4EAD50
:102AE0005FAD659769966CAD7DAD8EAD9FAD699715
:102AF0000E9441219B01AC01C701B6010E94811EC9
:102B00009B01AC010E94811EED966CAF7DAF8EAF34
:102B10009FAFED9765962CAD3DAD4EAD5FAD659722
:102B2000CA01B9010E9441216B017C0161962CAD63
:102B30003DAD4EAD5FAD6197CA01B9010E94412123
:102B40009B01AC01C701B6010E94811E9B01AC0133
:102B50000E94811E20E030E040E85FE30E94801E7A
:102B6000C358DF4F688379838A839B83CD57D040D6
:102B700089819A81AB81BC81AD968CAF9DAFAEAFA0
:102B8000BFAFAD972D813E814F815885E1962CAF27
:102B90003DAF4EAF5FAFE19789859A85AB85BC8528
:102BA000A9968CAF9DAFAEAFBFAFA99720E030E044
:102BB00040E85EE3A1966CAD7DAD8EAD9FADA19773
:102BC0000E944121A5966CAF7DAF8EAF9FAFA597B8
:102BD000A1966CAD7DAD8EAD9FADA1970E94B42145
:102BE0002EEE34E045E35FE30E9441212B013C01DE
:102BF000C0908B06D0908C06E0908D06F0908E06EB
:102C0000C358DF4F288139814A815B81CD57D0403D
:102C1000E1966CAD7DAD8EAD9FADE1970E944121F7
:102C20004B015C01ED962CAD3DAD4EAD5FADED972A
:102C3000A9966CAD7DAD8EAD9FADA9970E94412147
:102C40009B01AC01C501B4010E94801EA5962CAD6C
:102C50003DAD4EAD5FADA5970E9441214B015C019A
:102C6000A7019601C301B2010E9441219B01AC0161
:102C7000C501B4010E94801EA70196010E94811E19
:102C8000CF57DF4F688379838A839B83C158D040B5
:102C900060938B0670938C0680938D0690938E06BE
:102CA000C0908F06D0909006E0909106F09092062A
:102CB000AD966CAD7DAD8EAD9FADAD979058C358C0
:102CC000DF4F288139814A815B81CD57D0400E94F6
:102CD00041214B015C01E9962CAD3DAD4EAD5FADA0
:102CE000E997A9966CAD7DAD8EAD9FADA9970E9479
:102CF00041219B01AC01C501B4010E94811EA59632
:102D00002CAD3DAD4EAD5FADA5970E9441214B016D
:102D10005C01A7019601C301B2010E9441219B0100
:102D2000AC01C501B4010E94801EA70196010E945A
:102D3000811EA9966CAF7DAF8EAF9FAFA9976093B0
:102D40008F06709390068093910690939206C090A0
:102D50009306D0909406E0909506F0909606ED9636
:102D60002CAD3DAD4EAD5FADED97AD966CAD7DAD8F
:102D70008EAD9FADAD970E9441214B015C01E9965C
:102D80002CAD3DAD4EAD5FADE997E1966CAD7DAD3F
:102D90008EAD9FADE1970E9441219B01AC01C50121
:102DA000B4010E94801EA5962CAD3DAD4EAD5FAD29
:102DB000A5970E9441214B015C01A7019601C30127
:102DC000B2010E9441219B01AC01C501B4010E94E6
:102DD000801EA70196010E94811E4B015C0180921A
:102DE000930690929406A0929506B092960620E0E3
:102DF00030E040E05FE3A1966CAD7DAD8EAD9FAD60
:102E0000A1970E9441216B017C01C357DF4F2881AC
:102E100039814A815B81CD58D0400E9441212B01EC
:102E20003C0120E030E040E05FE3CF57DF4F6881B6
:102E300079818A819B81C158D0400E9441219B01A8
:102E4000AC01C301B2010E94811EA1966CAF7DAF9F
:102E50008EAF9FAFA197C757DF4F288139814A8135
:102E60005B81C958D040C701B6010E9441212B01A6
:102E70003C0120E030E040E05FE3A9966CAD7DAD21
:102E80008EAD9FADA9970E9441219B01AC01C3016A
:102E9000B2010E94811EA5966CAF7DAF8EAF9FAF31
:102EA000A597CB57DF4F288139814A815B81C5586F
:102EB000D040C701B6010E9441216B017C0120E096
:102EC00030E040E05FE3C501B4010E9441219B0175
:102ED000AC01C701B6010E94811E6B017C01A19665
:102EE0002CAD3DAD4EAD5FADA197CA01B9010E94B9
:102EF00041214B015C01A5962CAD3DAD4EAD5FADC2
:102F0000A597CA01B9010E9441219B01AC01C501ED
:102F1000B4010E94811E4B015C01A7019601C7010B
:102F2000B6010E9441219B01AC01C501B4010E9480
:102F3000811E20E030E040E05FE30E9441219B01E0
:102F4000AC0160E070E080E89FE30E94801E4B01CE
:102F50005C0161962CAD3DAD4EAD5FAD61970E94B9
:102F600041212B013C016D962CAD3DAD4EAD5FADC9
:102F70006D97A1966CAD7DAD8EAD9FADA1970E9472
:102F800041219B01AC01C301B2010E94801E2B01B3
:102F90003C0169962CAD3DAD4EAD5FAD6997A596F0
:102FA0006CAD7DAD8EAD9FADA5970E9441219B017B
:102FB000AC01C301B2010E94801E2B013C01659649
:102FC0002CAD3DAD4EAD5FAD6597C701B6010E941A
:102FD00041219B01AC01C301B2010E94801EAD964C
:102FE0006CAF7DAF8EAF9FAFAD9761962CAD3DAD11
:102FF0004EAD5FAD6197A1966CAD7DAD8EAD9FADD1
:10300000A1970E9441212B013C016D962CAD3DAD55
:103010004EAD5FAD6D97C501B4010E9441219B018A
:10302000AC01C301B2010E94811E2B013C016996D3
:103030002CAD3DAD4EAD5FAD6997C701B6010E94A5
:1030400041219B01AC01C301B2010E94811E2B01F1
:103050003C0165962CAD3DAD4EAD5FAD6597A59637
:103060006CAD7DAD8EAD9FADA5970E9441219B01BA
:10307000AC01C301B2010E94801EE1966CAF7DAF2E
:103080008EAF9FAFE19761962CAD3DAD4EAD5FAD7C
:103090006197A5966CAD7DAD8EAD9FADA5970E9455
:1030A00041212B013C016D962CAD3DAD4EAD5FAD88
:1030B0006D97C701B6010E9441219B01AC01C3017C
:1030C000B2010E94801E2B013C0169962CAD3DADE2
:1030D0004EAD5FAD6997C501B4010E9441219B01CE
:1030E000AC01C301B2010E94811E2B013C01659617
:1030F0002CAD3DAD4EAD5FAD6597A1966CAD7DAD90
:103100008EAD9FADA1970E9441219B01AC01C301EF
:10311000B2010E94811EA9966CAF7DAF8EAF9FAFAA
:10312000A99761962CAD3DAD4EAD5FAD6197C701DE
:10313000B6010E9441216B017C016D962CAD3DAD25
:103140004EAD5FAD6D97A5966CAD7DAD8EAD9FAD6F
:10315000A5970E9441219B01AC01C701B6010E94C5
:10316000811E6B017C0169962CAD3DAD4EAD5FAD0E
:103170006997A1966CAD7DAD8EAD9FADA1970E9474
:1031800041219B01AC01C701B6010E94801E6B0169
:103190007C0165962CAD3DAD4EAD5FAD6597C5012B
:1031A000B4010E9441219B01AC01C701B6010E94FC
:1031B000811E2B013C01AD962CAD3DAD4EAD5FADFA
:1031C000AD97CA01B9010E9441216B017C01E196D2
:1031D0002CAD3DAD4EAD5FADE197CA01B9010E9486
:1031E00041219B01AC01C701B6010E94811E6B0108
:1031F0007C01A9962CAD3DAD4EAD5FADA997CA013E
:10320000B9010E9441219B01AC01C701B6010E9496
:10321000811E6B017C01A3019201C301B2010E94D6
:1032200041219B01AC01C701B6010E94811E0E9491
:10323000B4219B01AC0160E070E080E89FE30E9454
:103240007F1F4B015C01AD962CAD3DAD4EAD5FAD2A
:10325000AD970E94412165966CAF7DAF8EAF9FAF59
:10326000659760939706709398068093990690935C
:103270009A06E1962CAD3DAD4EAD5FADE197C5012F
:10328000B4010E9441216B017C01C0929B06D09247
:103290009C06E0929D06F0929E06A9962CAD3DAD4F
:1032A0004EAD5FADA997C501B4010E944121619661
:1032B0006CAF7DAF8EAF9FAF619760939F067093A9
:1032C000A0068093A1069093A206A3019201C501D6
:1032D000B4010E9441212B013C014092A30650926F
:1032E000A4066092A5067092A60661962CAD3DAD2F
:1032F0004EAD5FAD6197CA01B9010E944121699647
:103300006CAF7DAF8EAF9FAF6997A7019601C701E4
:10331000B6010E94412169962CAD3DAD4EAD5FAD29
:1033200069970E94811E9B01AC010E94811E9B0136
:10333000AC0160E070E080E89FE30E94801E6D9623
:103340006CAF7DAF8EAF9FAF6D97A701960165966D
:103350006CAD7DAD8EAD9FAD65970E9441214B0157
:103360005C01A301920161966CAD7DAD8EAD9FAD08
:1033700061970E9441219B01AC01C501B4010E94EB
:10338000811E9B01AC010E94811E6D962CAD3DAD4E
:103390004EAD5FAD6D970E941B1F90586093260342
:1033A00070932703809328039093290361962CAD93
:1033B0003DAD4EAD5FAD619765966CAD7DAD8EADAB
:1033C0009FAD65970E9441214B015C01A3019201D1
:1033D000C701B6010E9441219B01AC01C501B401A6
:1033E0000E94801E9B01AC010E94811E4B015C016A
:1033F00020E030E040E85FE30E94342118160CF42E
:103400009FC320E030E040E85FEBC501B4010E94BB
:103410007A1F87FD9AC3C501B4010E94ED1E609317
:103420002A0370932B0380932C0390932D03A30105
:103430009201C301B2010E94412169962CAD3DADBC
:103440004EAD5FAD69970E94811E9B01AC010E9449
:10345000811E9B01AC0160E070E080E89FE30E9468
:10346000801E4B015C01A301920165966CAD7DADA0
:103470008EAD9FAD65970E9441212B013C01619665
:103480002CAD3DAD4EAD5FAD6197C701B6010E9459
:1034900041219B01AC01C301B2010E94811E9B012D
:1034A000AC010E94811EA50194010E941B1F609324
:1034B0002E0370932F038093300390933103609118
:1034C000120370911303072E000C880B990B0E94B6
:1034D000292020E030E04AE754E40E94801E22ECDC
:1034E00038EB42EB5EE30E94412120E030E04AE706
:1034F00054E40E947F1F22EC38EB42E35EE30E941B
:10350000801E60931A0370931B0380931C03909397
:103510001D036091140370911503072E000C880B96
:10352000990B0E94292020E030E04AE754E40E94F1
:10353000801E22EC38EB42EB5EE30E94412120E04A
:1035400030E04AE754E40E947F1F22EC38EB42E36C
:103550005EE30E94801E60931E0370931F0380939E
:1035600020039093210360910E0370910F03072EA7
:10357000000C880B990B0E94292020E030E04AE7DC
:1035800054E40E94801E2BED3FE049EC5FE30E9473
:10359000412120E030E04AE754E40E947F1F2BEDF8
:1035A0003FE049E45FE30E94801E60932203709332
:1035B00023038093240390932503E5962CAD3DAD22
:1035C0004EAD5FADE59760E070E080E89FE30E945C
:1035D0007F1F20E030E040E251E40E94811E6B0139
:1035E0007C01AAE1B3E06396BFAFAEAF639704ED91
:1035F00012E01D01F10161917191819191911F0181
:10360000D8014D905D906D907D908D0120E030E06F
:1036100040E251E40E9441214B015C01E5962CAD52
:103620003DAD4EAD5FADE597C301B2010E947F1F76
:103630009B01AC01C501B4010E94811EA701960146
:103640000E947F1FF101349760837183828393838B
:10365000F80134976083718382839383B6E22B16DB
:10366000B3E03B0639F6E6E2F3E06796FFAFEEAF74
:1036700067972EE635E02F963FAF2EAF2F97AE011E
:103680004F5B5F4F6B965FAF4EAF6B978901639651
:10369000AEADBFAD63976D917D918D919D91639618
:1036A000BFAFAEAF63976796EEADFFAD6797219161
:1036B0003191419151916796FFAFEEAF67970E94AC
:1036C000801E6B017C01AC019B01E5966CAD7DAD6C
:1036D0008EAD9FADE5970E944121D80154962D9162
:1036E0003D914D915C9157970E94811E4B015C0169
:1036F000F801848A958AA68AB78A20893189428905
:103700005389C701B6010E94801EE5962CAD3DADE0
:103710004EAD5FADE5970E947F1F2B013C01D801A4
:103720005096CD92DD92ED92FC9253972D913D9162
:103730004D915C91C701B6010E9441216B017C0152
:10374000F8012481358146815781C501B4010E9469
:1037500041219B01AC01C701B6010E94811E6B0192
:103760007C01D80118962D913D914D915C911B974C
:10377000C301B2010E9441219B01AC01C701B60106
:103780000E94811E6B96EEADFFAD6B9761937193B6
:10379000819391936B96FFAFEEAF6B97085E1F4FCF
:1037A00063962EAD3FAD63972216330609F06FCFB7
:1037B0002D96CCACDDACEEACFFAC2D9729968CAC45
:1037C0009DACAEACBFAC299725968CAD9DADAEAD92
:1037D000BFAD259765968CAF9DAFAEAFBFAF659778
:1037E0000091100310911103B801012E000C880BF9
:1037F000990B0E94292020E030E046EE52E40E941E
:10380000811E2B013C01AC019B0165966CAD7DAD29
:103810008EAD9FAD65970E94811E69966CAF7DAF9E
:103820008EAF9FAF6997A50194010E94801EA701EA
:1038300096010E94811E6093E0027093E1028093E2
:10384000E2029093E30265962CAD3DAD4EAD5FADC7
:103850006597C301B2010E94801E2B013C01A501A6
:1038600094010E94801EA70196010E94801E609311
:10387000E4027093E5028093E6029093E702699672
:103880002CAD3DAD4EAD5FAD6997C501B4010E9451
:10389000811EA70196010E94801E6093E80270932A
:1038A000E9028093EA029093EB02A3019201C50121
:1038B000B4010E94811EA70196010E94811E60939F
:1038C000EC027093ED028093EE029093EF02E0EE33
:1038D000CE2EE2E0DE2E7601D7018D909D90AD9048
:1038E000BD907D0120E030E849E854E4C501B40111
:1038F0000E947A1F87FD2EC120E030E04AEF54E499
:10390000C501B4010E943421181634F4812C912C85
:103910007AEFA72E74E4B72EF70134978082918254
:10392000A282B382B0EFEB16B2E0FB06A9F680915B
:103930000002882309F416C107EB16E0F601619135
:103940007191819191916F010E94F11FC8010E94B4
:10395000C5050D5F1F4FEC14FD0481F78091100326
:10396000909111038C3494400CF040C080910A0374
:1039700090910B038C3D9540CCF5109200020E9473
:103980004F0710E000E02F96AEADBFAD2F974D91E1
:103990005D916D917C91C8010E94240C2F96EEAD33
:1039A000FFAD2F974085518562857385C8010896C4
:1039B0000E94240C2F96AEADBFAD2F9714964D915B
:1039C0005D916D917C911797C80140960E94240CDF
:1039D0002F96EEADFFAD2F9778962F96FFAFEEAFF7
:1039E0002F97085E1F4F0834110569F687E993E0A9
:1039F0000E940803892B09F4F5C087E993E00E942F
:103A0000E602E0913606F09137066F014FEFC41AD7
:103A1000D40AD0923706C0923606EA54FA4F808311
:103A2000833221F77090B6051082F12CE12C52E020
:103A3000C516D1040CF447C047EB842E45E0942E04
:103A400010E000E081E090E0EE24E394F12CD4015A
:103A50002D914D01BFEFEB1AFB0A2C32D9F458011E
:103A6000EFEFAE1ABE0AF401319710828A549A4FD2
:103A70000E944407000F111F000F111FE1E0F0E04A
:103A8000EC0FFD1FE00FF11F60837183828393832E
:103A9000C7018501CE14DF04D1F67801FFEFEF1ADC
:103AA000FF0A8A549A4F0E944407000F111F000F0B
:103AB000111FE1E0F0E0EC0FFD1FE00FF11F60834C
:103AC000718382839383E0917906F0917A06A7014E
:103AD000BE016F5F7F4F872D1995109237061092A8
:103AE000360684CF823069F4109290008093910062
:103AF000109295001092940088BB809371000C94F2
:103B00009D13833069F41092A0001093A1001092CD
:103B1000A5001092A40019BB109372000C949D1381
:103B200081110C949D131092200110932101109289
:103B30002501109224011ABB109373000C949D135D
:103B40006BED7FE089EC9FE36ACC6BED7FE089EC65
:103B50009FEB65CC812C60E8962E69E8A62E64E484
:103B6000B62EDACE0C3414400CF040CF80910A030C
:103B700090910B038D3D95400CF438CF31E030939C
:103B8000000210927E0510927F051092800510921F
:103B9000810510928205109283051092840510927F
:103BA000850510929605109297051092980510922F
:103BB000990510929A0510929B0510929C051092FF
:103BC0009D051092AE051092AF051092B0051092AF
:103BD000B1051092B2051092B3051092B40510927F
:103BE000B50504CF0E9453020E94272020913A037A
:103BF00030913B0340913C0350913D030E94801E55
:103C000020E030E44CE955E40E947A1F87FDEACFBA
:103C10000E94B9030C94F113F999FECF92BD81BDB6
:103C2000F89A992780B50895262FF999FECF1FBAE3
:103C300092BD81BD20BD0FB6F894FA9AF99A0FBED5
:103C400001960895A1E21A2EAA1BBB1BFD010DC00F
:103C5000AA1FBB1FEE1FFF1FA217B307E407F5073C
:103C600020F0A21BB30BE40BF50B661F771F881F18
:103C7000991F1A9469F760957095809590959B01AE
:103C8000AC01BD01CF010895991B79E004C0991FD3
:103C9000961708F0961B881F7A95C9F780950895A6
:103CA00097FB072E16F4009407D077FD09D00E94E9
:103CB0006C1E07FC05D03EF4909581959F4F0895AA
:103CC000709561957F4F0895EE0FFF1F881F8BBF82
:103CD0000790F691E02D1994AA1BBB1B51E107C078
:103CE000AA1FBB1FA617B70710F0A61BB70B881F8C
:103CF000991F5A95A9F780959095BC01CD0108951B
:103D00005058BB27AA270E94981E0C94FA200E94A4
:103D1000EC2038F00E94F32020F039F49F3F19F492
:103D200026F40C94AE200EF4E095E7FB0C94A8204A
:103D3000E92F0E940B2158F3BA1762077307840713
:103D4000950720F079F4A6F50C942D210EF4E0955A
:103D50000B2EBA2FA02D0B01B90190010C01CA0145
:103D6000A0011124FF27591B99F0593F50F4503EF0
:103D700068F11A16F040A22F232F342F4427585FE2
:103D8000F3CF469537952795A795F0405395C9F7FA
:103D90007EF41F16BA0B620B730B840BBAF09150B2
:103DA000A1F0FF0FBB1F661F771F881FC2F70EC051
:103DB000BA0F621F731F841F48F487957795679524
:103DC000B795F7959E3F08F0B0CF9395880F08F010
:103DD0009927EE0F9795879508959F939F77EEE328
:103DE00089379E0728F4E4EEF0E00E94D8200CC04A
:103DF0000E9464209058A2EA2AED3FE049EC5FE37C
:103E00000E94981E0E94FA200F9007FC9058089577
:103E10000E94EC2060F080E891E009F49EEF0E949F
:103E2000F32028F040E851E071F45EEF0CC00C94F0
:103E3000AE200C942D21E92FE0780E940B2140F355
:103E4000092E052AB1F3261737074807590738F016
:103E50000E2E07F8E02569F0E025E0640AC0EF6364
:103E600007F8009407FADB01B9019D01DC01CA01E2
:103E7000AD01EF930E94961F0E94FA200E944B1FF3
:103E80005F91552339F02BED3FE049E450FD49ECBB
:103E90000C94811E0895DF93DD27B92FBF7740E88A
:103EA0005FE31616170648075B0718F4D92F0E9420
:103EB00039219F938F937F936F930E94F421E8EFB2
:103EC000F0E00E94B1200E94FA202F913F914F9183
:103ED0005F910E945421DD2351F09058A2EA2AED0F
:103EE0003FE049EC5FE3D0785D270E94981EDF91A8
:103EF0000C94FA200E94842008F481E008950E9426
:103F0000931F0C94FA200E94F32058F00E94EC209A
:103F100040F029F45F3F29F00C94A82051110C9433
:103F20002E210C94AE200E940B2168F39923B1F34B
:103F3000552391F3951B550BBB27AA2762177307CF
:103F4000840738F09F5F5F4F220F331F441FAA1F63
:103F5000A9F335D00E2E3AF0E0E832D0915050401F
:103F6000E695001CCAF72BD0FE2F29D0660F771FCD
:103F7000881FBB1F261737074807AB07B0E809F0B3
:103F8000BB0B802DBF01FF2793585F4F3AF09E3F38
:103F9000510578F00C94A8200C942E215F3FE4F397
:103FA000983ED4F3869577956795B795F7959F5F7B
:103FB000C9F7880F911D9695879597F90895E1E0C7
:103FC000660F771F881FBB1F621773078407BA0726
:103FD00020F0621B730B840BBA0BEE1F88F7E09581
:103FE00008950E94F81F6894B1110C942E21089531
:103FF0000E94132188F09F5798F0B92F9927B75145
:10400000B0F0E1F0660F771F881F991F1AF0BA957C
:10401000C9F714C0B13091F00E942D21B1E008958C
:104020000C942D21672F782F8827B85F39F0B93F7E
:10403000CCF3869577956795B395D9F73EF490952F
:104040008095709561957F4F8F4F9F4F0895E894AD
:1040500009C097FB3EF490958095709561957F4FD0
:104060008F4F9F4F9923A9F0F92F96E9BB2793957E
:10407000F695879577956795B795F111F8CFFAF48E
:10408000BB0F11F460FF1BC06F5F7F4F8F4F9F4FBF
:1040900016C0882311F096E911C0772321F09EE81D
:1040A000872F762F05C0662371F096E8862F70E083
:1040B00060E02AF09A95660F771F881FDAF7880F5D
:1040C0009695879597F90895DF93CF931F930F9354
:1040D0008B01EC01E5E2F1E00E94B1200E94FA20A0
:1040E0009801AE018B01EC0160E070E080E89FE395
:1040F0000E94801E0E94B4219801AE010F911F9171
:10410000CF91DF910C945421990F0008550FAA0B01
:10411000E0E8FEEF16161706E807F907C0F01216DA
:104120001306E407F50798F0621B730B840B950BDD
:1041300039F40A2661F0232B242B252B21F4089532
:104140000A2609F4A140A6958FEF811D811D0895CF
:1041500097F99F6780E870E060E008959FEF80EC3A
:104160000895DF93CF931F930F93FF92EF92DF9207
:104170007B018C01689406C0DA2EEF010E94542165
:10418000FE01E894A5912591359145915591A6F3AD
:10419000EF010E94981EFE019701A801DA9469F7C9
:1041A000DF90EF90FF900F911F91CF91DF910895D5
:1041B0009F938F937F936F93FF93EF939B01AC013A
:1041C0000E944121EF91FF910E94B1202F913F91D8
:1041D0004F915F910C94412100240A941616170602
:1041E00018060906089500240A94121613061406E8
:1041F00005060895092E0394000C11F4882352F04B
:10420000BB0F40F4BF2B11F460FF04C06F5F7F4F02
:104210008F4F9F4F089557FD9058440F551F59F0E9
:104220005F3F71F04795880F97FB991F61F09F3FA3
:1042300079F087950895121613061406551FF2CFCC
:104240004695F1DF08C0161617061806991FF1CF1C
:1042500086957105610508940895E894BB27662743
:104260007727CB0197F908950E94842008F48FEFF7
:1042700008959B01AC0160E070E080E89FE30C943E
:104280007F1F0E9454210C94FA200E94EC2038F0E9
:104290000E94F32020F0952311F00C94A8200C9498
:1042A000AE2011240C942E210E940B2170F3959FB7
:1042B000C1F3950F50E0551F629FF001729FBB271D
:1042C000F00DB11D639FAA27F00DB11DAA1F649FB9
:1042D0006627B00DA11D661F829F2227B00DA11D6C
:1042E000621F739FB00DA11D621F839FA00D611DF2
:1042F000221F749F3327A00D611D231F849F600D13
:10430000211D822F762F6A2F11249F5750409AF03B
:10431000F1F088234AF0EE0FFF1FBB1F661F771FC7
:10432000881F91505040A9F79E3F510580F00C9492
:10433000A8200C942E215F3FE4F3983ED4F3869599
:1043400077956795B795F795E7959F5FC1F7FE2B32
:10435000880F911D9695879597F9089519F416F48D
:104360000C94AE200C94FD210E941321B8F39923E4
:10437000C9F3B6F39F57550B87FF0E940B22002409
:10438000A0E640EA900180585695979528F4805C05
:10439000660F771F881F20F026173707480730F46D
:1043A000621B730B840B202931294A2BA695179485
:1043B0000794202531254A2758F7660F771F881F55
:1043C00020F026173707480730F4620B730B840B75
:1043D000200D311D411DA09581F7B901842F915801
:1043E000880F9695879508959B01AC010C94412107
:1043F0000E948420880B990B08959F3F31F09150C3
:1044000020F4879577956795B795880F911D9695B8
:10441000879597F9089591505040660F771F881F30
:08442000D2F70895F894FFCFD4
:10442800012400220023002500000000004A03AAFE
:1044380002D70299030803E602FA0200000000937B
:10444800056605C2053C055F054C053D056E616EB8
:1044580000696E66006F7666004D73675479706503
:104468003A200020646174613A205B002C20000D22
:104478000A002C0063616C696272616E646F00638C
:0A448800616C69627261646F0000EC
:00000001FF
